:100000000C942A000C9434000C9434000C943400AA
:100010000C9434000C9434000C9434000C94340090
:100020000C9434000C9434000C9434000C94340080
:100030000C9434000C9434000C9434000C94340070
:100040000C9434000C9434000C9434000C94340060
:100050000C94340011241FBECFE5D8E0DEBFCDBF25
:100060000E9485000C94A2000C940000DF93CF93B3
:10007000CDB7DEB7E2E2F0E080E28083A6E5B0E053
:10008000E6E5F0E0808184648C93CF91DF91089560
:10009000DF93CF930F92CDB7DEB7E1E2F0E080813E
:1000A000882F90E0887F907080369105B1F7A6E5A3
:1000B000B0E0E6E5F0E08081846C8C93E6E5F0E06A
:1000C00080810F90CF91DF910895DF93CF93CDB7CB
:1000D000DEB7A6E5B0E0E6E5F0E08081846C8C93C5
:1000E000E6E5F0E080818823DCF7E1E2F0E0808162
:1000F000882F90E0887F907080389105B1F7E3E217
:10010000F0E08081CF91DF910895DF93CF930F923C
:10011000CDB7DEB71982EAE3F0E081E080830E9488
:1001200036000E9448000E946500898389818437D7
:10013000C1F7ABE3B0E0EBE3F0E0908181E0892729
:080140008C93EFCFF894FFCF80
:00000001FF
