:100000000C942A000C9434000C9434000C943400AA
:100010000C9434000C9434000C9434000C94340090
:100020000C9434000C9434000C9434000C94340080
:100030000C9434000C9434000C9434000C94340070
:100040000C9434000C9434000C9434000C94340060
:100050000C94340011241FBECFE5D8E0DEBFCDBF25
:100060000E94AB000C94C1000C940000DF93CF936E
:10007000CDB7DEB7E6E5F0E082E78083E1E2F0E0CD
:100080001082CF91DF910895DF93CF93CDB7DEB784
:10009000E6E5F0E080EA8083E6E5F0E08081882311
:1000A000DCF7E1E2F0E08081882F90E0887F9070BB
:1000B00088309105B1F7CF91DF910895DF93CF9309
:1000C0000F92CDB7DEB78983E3E2F0E089818083C8
:1000D000E6E5F0E084E88083E6E5F0E080818823CF
:1000E000DCF7E1E2F0E08081882F90E0887F90707B
:1000F00088319105B1F70F90CF91DF910895DF938B
:10010000CF930F92CDB7DEB78983E3E2F0E0898128
:100110008083E6E5F0E084E88083E6E5F0E0808136
:100120008823DCF7E1E2F0E08081882F90E0887F8F
:10013000907088329105B1F70F90CF91DF910895BB
:10014000DF93CF93CDB7DEB7E6E5F0E084E98083B7
:10015000CF91DF910895DF93CF9300D0CDB7DEB775
:1001600080E28A8382E589830E9436000E944400EF
:100170008A810E945E0089810E947F000E94A00007
:06018000F5CFF894FFCF5B
:00000001FF
