:100000000C942A000C943C000C943C000C943C0092
:100010000C943C000C943C000C943C000C943C0070
:100020000C943C000C943C000C943E000C943C005E
:100030000C943C000C943C000C943C000C943C0050
:100040000C943C000C943C000C943C000C943C0040
:100050000C943C0011241FBECFE5D8E0DEBFCDBF1D
:1000600010E0A0E6B0E001C01D92A236B107E1F7B2
:100070000E9479000C94C5000C9400001F920F920E
:100080000FB60F9211242F938F939F93AF93BF932B
:10009000EF93FF93DF93CF93CDB7DEB780916000EE
:1000A000909161000196909361008093600080912F
:1000B00060009091610023E18838920761F410920A
:1000C000610010926000ABE3B0E0EBE3F0E0908100
:1000D00081E089278C93CF91DF91FF91EF91BF91C0
:1000E000AF919F918F912F910F900FBE0F901F9006
:1000F0001895DF93CF93CDB7DEB7EAE3F0E08FEF4B
:100100008083A3E5B0E0E3E5F0E080818F7B8C9312
:10011000A3E5B0E0E3E5F0E0808188608C93A3E59F
:10012000B0E0E3E5F0E080818F7E8C93A3E5B0E062
:10013000E3E5F0E080818F7D8C93ECE5F0E088ECE6
:100140008083A3E5B0E0E3E5F0E080818E7F8C93CF
:10015000A3E5B0E0E3E5F0E0808182608C93A3E565
:10016000B0E0E3E5F0E080818B7F8C93A9E5B0E01F
:10017000E9E5F0E0808182608C93AFE5B0E0EFE5E7
:0E018000F0E0808180688C93FFCFF894FFCF71
:00000001FF
