:100000000C942A000C9447000C9447000C94470071
:100010000C9447000C9447000C9447000C94470044
:100020000C9447000C9447000C9447000C94470034
:100030000C9447000C9447000C9447000C94470024
:100040000C9447000C9447000C9447000C94470014
:100050000C94470011241FBECFE5D8E0DEBFCDBF12
:1000600010E0A0E6B0E0E0EDF8E002C005900D92EF
:10007000A636B107D9F710E0A6E6B0E001C01D92A0
:10008000AC36B107E1F70E947B010C9466040C9436
:100090000000843008F075C0683008F072C041304C
:1000A000B1F5813099F0813030F08230D1F0833079
:1000B00009F067C021C02BB381E090E002C0880F37
:1000C000991F6A95E2F7282B2BBB089528B381E08E
:1000D00090E002C0880F991F6A95E2F7282B28BB91
:1000E000089525B381E090E002C0880F991F6A95BA
:1000F000E2F7282B25BB089522B381E090E002C0EF
:10010000880F991F6A95E2F7282B22BB0895442394
:10011000C1F5813099F0813028F08230D9F08330F8
:1001200081F524C02BB381E090E002C0880F991FB5
:100130006A95E2F7809582238BBB089528B381E00E
:1001400090E002C0880F991F6A95E2F7809582239C
:1001500088BB089525B381E090E002C0880F991F05
:100160006A95E2F78095822385BB089522B381E0EA
:1001700090E002C0880F991F6A95E2F7809582236C
:1001800082BB08958430D0F46830C0F4813049F0E7
:10019000813028F0823039F0833089F406C089B389
:1001A00005C086B303C083B301C080B390E002C032
:1001B000959587956A95E2F7817008958FEF089578
:1001C000843008F075C0683008F072C04130B1F575
:1001D000813099F0813030F08230D1F0833009F0F5
:1001E00067C021C02AB381E090E002C0880F991F48
:1001F0006A95E2F7282B2ABB089527B381E090E0A7
:1002000002C0880F991F6A95E2F7282B27BB089533
:1002100024B381E090E002C0880F991F6A95E2F74D
:10022000282B24BB089521B381E090E002C0880F01
:10023000991F6A95E2F7282B21BB08954423C1F545
:10024000813099F0813028F08230D9F0833081F507
:1002500024C02AB381E090E002C0880F991F6A95FC
:10026000E2F7809582238ABB089527B381E090E06E
:1002700002C0880F991F6A95E2F78095822387BB99
:10028000089524B381E090E002C0880F991F6A9519
:10029000E2F78095822384BB089521B381E090E04A
:1002A00002C0880F991F6A95E2F78095822381BB6F
:1002B0000895813049F0813028F0823039F0833060
:1002C00041F406C06ABB089567BB089564BB0895F6
:1002D00061BB0895813049F0813028F0823039F0D7
:1002E000833041F406C06BBB089568BB089565BBBD
:1002F000089562BB089580E060E00E94590180E0AB
:100300006FEF0E946A0180E061E00E94C20000D0AD
:1003100000D0EDB7FEB7319620E630E0ADB7BEB7FE
:1003200012963C932E931197828313820E949D0113
:100330000F900F900F900F900895A0E0B0E0E3EAC7
:10034000F1E00C943F04FE0135966191719180912A
:10035000680090916900AF010E94B2012096E2E02E
:100360000C945B04ABE0B0E0E8EBF1E00C942F04FC
:100370003C012B015A01FC0117821682838181FD09
:1003800003C06FEF7FEFC6C19AE0892E1E0108946B
:10039000211C311CF3012381F20123FD859123FFF0
:1003A00081912F01882309F4B2C1853239F423FDEC
:1003B000859123FF81912F01853229F490E0B301CB
:1003C0000E94A503E7CF982FFF24EE249924FFE194
:1003D000FF15D0F09B3269F09C3228F4903259F02E
:1003E000933291F40EC09D3249F0903369F441E0AC
:1003F00024C052E0F52A84E0F82A28C098E0F92ABF
:1004000025C0E0E1FE2A22C0F7FC29C0892F8053D5
:100410008A3070F4F6FE05C0989C902C1124980E3A
:1004200015C0E89CE02C1124E80EF0E2FF2A0EC073
:100430009E3229F4F6FC6BC140E4F42A07C09C36D6
:1004400019F450E8F52A02C0983649F4F20123FD68
:10045000959123FF91912F01992309F0B8CF892F0E
:100460008554833018F08052833038F444E050E0F3
:10047000A40EB51E5FE359830FC0933631F0933756
:1004800079F0933509F056C020C0F5018081898349
:1004900042E050E0A40EB51E610101E010E012C080
:1004A000F501C080D180F6FC03C06FEF7FEF02C082
:1004B000692D70E042E050E0A40EB51EC6010E9416
:1004C0009A038C015FE7F52214C0F501C080D1804A
:1004D000F6FC03C06FEF7FEF02C0692D70E042E0D1
:1004E00050E0A40EB51EC6010E948F038C0150E897
:1004F000F52AF3FE07C01AC080E290E0B3010E9423
:10050000A503EA948E2D90E008171907A8F30EC0F2
:10051000F601F7FC8591F7FE81916F0190E0B30140
:100520000E94A503E110EA94015010400115110545
:1005300079F7EAC0943611F0993669F5F7FE08C0EC
:10054000F501208131814281538184E090E00AC02D
:10055000F501808191819C01442737FD4095542FFE
:1005600082E090E0A80EB91E9FE6F92257FF09C06D
:1005700050954095309521953F4F4F4F5F4FE0E8A4
:10058000FE2ACA01B901A1012AE030E00E94D1038C
:10059000D82ED21840C0953729F41F2D1F7E2AE08F
:1005A00030E01DC01F2D197F9F3661F0903720F479
:1005B000983509F0ACC00FC0903739F0983709F082
:1005C000A6C004C028E030E00AC0106114FD146029
:1005D00020E130E004C014FD166020E132E017FF96
:1005E00008C0F501608171818281938144E050E00F
:1005F00008C0F50180819181BC0180E090E042E07B
:1006000050E0A40EB51EA1010E94D103D82ED2182D
:100610008FE7F82EF122F6FE0BC05EEFF522D9141B
:1006200038F4F4FE07C0F2FC05C08FEEF82202C0D9
:100630001D2D01C0192DF4FE0DC0FE01ED0DF11DA3
:100640008081803319F499EEF92208C01F5FF2FE11
:1006500005C003C08F2D867809F01F5F0F2DF3FCB6
:1006600014C0F0FE0FC01E1510F09D2C0BC09D2C69
:100670009E0C911A1E2D06C080E290E0B3010E94EC
:10068000A5031F5F1E15C0F304C01E1510F4E11A68
:1006900001C0EE2404FF0FC080E390E0B3010E948C
:1006A000A50302FF1DC001FD03C088E790E00EC056
:1006B00088E590E00BC0802F867891F001FF02C0A2
:1006C0008BE201C080E2F7FC8DE290E0B3010E9472
:1006D000A50306C080E390E0B3010E94A5039A94AD
:1006E000D914C0F3DA94F101ED0DF11D808190E091
:1006F000B3010E94A503DD20A9F706C080E290E0C7
:10070000B3010E94A503EA94EE20C1F743CEF301A2
:1007100066817781CB012B96E2E10C944B04FC01BE
:100720000590615070400110D8F7809590958E0F1C
:100730009F1F0895FC016150704001900110D8F78F
:10074000809590958E0F9F1F08950F931F93CF93C1
:10075000DF938C01EB018B8181FF1BC082FF0DC0F9
:100760002E813F818C819D812817390764F4E881AF
:10077000F9810193F983E88306C0E885F985802F24
:100780000995892B31F48E819F8101969F838E83F9
:1007900002C00FEF1FEFC801DF91CF911F910F91A2
:1007A0000895FA01AA27283051F1203181F1E89407
:1007B0006F936E7F6E5F7F4F8F4F9F4FAF4FB1E054
:1007C0003ED0B4E03CD0670F781F891F9A1FA11D4F
:1007D000680F791F8A1F911DA11D6A0F711D811D50
:1007E000911DA11D20D009F468943F912AE0269F15
:1007F00011243019305D3193DEF6CF010895462F74
:100800004770405D4193B3E00FD0C9F7F6CF462F54
:100810004F70405D4A3318F0495D31FD40524193BD
:1008200002D0A9F7EACFB4E0A6959795879577957A
:100830006795BA95C9F700976105710508959B0101
:10084000AC010A2E06945795479537952795BA958A
:10085000C9F7620F731F841F951FA01D08952F9263
:100860003F924F925F926F927F928F929F92AF9240
:10087000BF92CF92DF92EF92FF920F931F93CF938D
:10088000DF93CDB7DEB7CA1BDB0B0FB6F894DEBF24
:100890000FBECDBF09942A88398848885F846E844A
:1008A0007D848C849B84AA84B984C884DF80EE8094
:1008B000FD800C811B81AA81B981CE0FD11D0FB69D
:1008C000F894DEBF0FBECDBFED010895F894FFCFC1
:0608D000783D25640000E4
:00000001FF
