:100000000C942A000C9434000C9434000C943400AA
:100010000C9434000C9434000C9434000C94340090
:100020000C9434000C9434000C9434000C94340080
:100030000C9434000C9434000C9434000C94340070
:100040000C9434000C9434000C9434000C94340060
:100050000C94340011241FBECFE5D8E0DEBFCDBF25
:100060000E9468010C94CD010C940000843008F0CB
:1000700075C0683008F072C04130B1F5813099F038
:10008000813030F08230D1F0833009F067C021C078
:100090002BB381E090E002C0880F991F6A95E2F7C8
:1000A000282B2BBB089528B381E090E002C0880F75
:1000B000991F6A95E2F7282B28BB089525B381E0A4
:1000C00090E002C0880F991F6A95E2F7282B25BBA4
:1000D000089522B381E090E002C0880F991F6A95CD
:1000E000E2F7282B22BB08954423C1F5813099F013
:1000F000813028F08230D9F0833081F524C02BB3D1
:1001000081E090E002C0880F991F6A95E2F7809520
:1001100082238BBB089528B381E090E002C0880F52
:10012000991F6A95E2F78095822388BB089525B3CD
:1001300081E090E002C0880F991F6A95E2F78095F0
:10014000822385BB089522B381E090E002C0880F2E
:10015000991F6A95E2F78095822382BB08958430C7
:10016000D0F46830C0F4813049F0813028F082301A
:1001700039F0833089F406C089B305C086B303C063
:1001800083B301C080B390E002C0959587956A95CE
:10019000E2F7817008958FEF0895843008F075C0FC
:1001A000683008F072C04130B1F5813099F081308B
:1001B00030F08230D1F0833009F067C021C02AB31B
:1001C00081E090E002C0880F991F6A95E2F7282B22
:1001D0002ABB089527B381E090E002C0880F991FE1
:1001E0006A95E2F7282B27BB089524B381E090E0BD
:1001F00002C0880F991F6A95E2F7282B24BB089547
:1002000021B381E090E002C0880F991F6A95E2F760
:10021000282B21BB08954423C1F5813099F081300A
:1002200028F08230D9F0833081F524C02AB381E0F0
:1002300090E002C0880F991F6A95E2F780958223AB
:100240008ABB089527B381E090E002C0880F991F10
:100250006A95E2F78095822387BB089524B381E0F5
:1002600090E002C0880F991F6A95E2F7809582237B
:1002700084BB089521B381E090E002C0880F991FEC
:100280006A95E2F78095822381BB0895813049F019
:10029000813028F0823039F0833041F406C06ABBE7
:1002A000089567BB089564BB089561BB08958130CC
:1002B00049F0813028F0823039F0833041F406C0B3
:1002C0006BBB089568BB089565BB089562BB089534
:1002D0000F931F9381E06FEF0E94460181E060E081
:1002E00040E00E94360081E061E040E00E9436007C
:1002F00081E062E040E00E94360081E063E041E09E
:100300000E94360000E41CE9C8010197F1F781E082
:1003100060E040E00E94360081E061E040E00E9441
:10032000360081E062E041E00E94360081E063E057
:1003300040E00E943600C8010197F1F781E060E0DB
:1003400040E00E94360081E061E041E00E9436001A
:1003500081E062E040E00E94360081E063E040E03E
:100360000E943600C8010197F1F781E060E041E0AA
:100370000E94360081E061E040E00E94360081E0AA
:1003800062E040E00E94360081E063E040E00E94CD
:0E0390003600C8010197F1F7FFCFF894FFCFB8
:00000001FF
